:020000040800F2
:10000000000002200D000108B13A0008B33A0008D0
:10001000B53A0008B73A0008B93A000800000000F5
:10002000000000000000000000000000BB3A0008D3
:10003000BD3A000800000000BF3A0008C13A0008BD
:100040005D000108C93A00085D0001085D00010873
:10005000D13A0008D93A0008DB3A00085D000108EF
:100060005D0001085D0001085D000108E53A000837
:10007000F53A0008053B0008153B0008253B000841
:10008000353B0008453B00085D0001085D000108A4
:100090005D0001085D0001085D0001085D000108C8
:1000A000553B0008653B0008753B0008853B000890
:1000B0005D0001085D0001085D000108953B000836
:1000C000A53B0008B53B0008C53B0008D53B000830
:1000D000E53B0008F53B00085D0001085D000108F4
:1000E0005D0001085D00010800000000053C0008FB
:1000F000153C0008253C0008353C0008453C00083C
:100100005D000108553C00085D000108653C0008E1
:100110005D0001085D0001085D0001085D00010847
:10012000753C0008853C00085D0001085D00010881
:10013000953C00085D0001085D0001085D000108B4
:1001400000000000000000000000000000000000AF
:100150005D0001085D0001085D0001085D00010807
:100160005D0001085D000108A53C0008B53C0008E1
:100170005D000108C53C00085D00010800000000AA
:100180005D000108D53C00085D0001085D00010824
:10019000D93C00085D000108E93C0008F93C000872
:1001A0005D0001085D0001085D000108113D0008C7
:1001B0005D0001085D0001085D0001085D000108A7
:1001C0005D0001085D0001085D0001085D00010897
:1001D0005D0001085D0001085D0001085D00010887
:1001E0005D0001085D0001085D0001085D00010877
:1001F0005D0001085D0001085D0001085D00010867
:100200005D0001085D000108293D00085D0001084E
:100210005D0001085D0001085D0001085D00010846
:100220005D0001085D0001085D000108000000009C
:100230005D000108413D0008000000005D0001086C
:100240005D0001085D0001085D0001085D00010816
:100250005D0001085D0001085D0001085D00010806
:100260005D0001085D0001085D0001085D000108F6
:100270005D0001085D0001085D000108000000004C
:100280005D0001085D000108493D00080000000014
:08029000000000005D00010800
:1002A000044B05481B1A062B02D9044B03B118470F
:1002B000704700BFEF010020EC01002000000000AB
:1002C00005490648091A891001EBD171491002D07D
:1002D000034B03B118477047EC010020EC010020EC
:1002E0000000000010B5064C237843B9FFF7D8FF93
:1002F000044B13B10448AFF300800123237010BDF9
:10030000F0010020000000006000010808B5084B63
:100310001BB108490848AFF300800848036813B9C7
:10032000BDE80840CCE7064B002BF9D09847F7E72B
:1003300000000000F401002060000108EC01002032
:100340000000000070B50F4E0F4D761BB61018BFA1
:10035000002405D0013455F8043B9847A642F9D152
:100360000A4E0B4D761B0FF07BFEB61018BF002413
:1003700006D0013455F8043B9847A642F9D170BD28
:1003800070BD00BF940201089402010898020108A0
:1003900094020108024B0146186800F03BB900BF07
:1003A00000000020024B0146186800F0EBB800BFC7
:1003B00000000020844641EA000313F003036DD1DE
:1003C000403A41D351F8043B40F8043B51F8043B18
:1003D00040F8043B51F8043B40F8043B51F8043B1F
:1003E00040F8043B51F8043B40F8043B51F8043B0F
:1003F00040F8043B51F8043B40F8043B51F8043BFF
:1004000040F8043B51F8043B40F8043B51F8043BEE
:1004100040F8043B51F8043B40F8043B51F8043BDE
:1004200040F8043B51F8043B40F8043B51F8043BCE
:1004300040F8043B51F8043B40F8043B51F8043BBE
:1004400040F8043B403ABDD2303211D351F8043B5E
:1004500040F8043B51F8043B40F8043B51F8043B9E
:1004600040F8043B51F8043B40F8043B103AEDD20D
:100470000C3205D351F8043B40F8043B043AF9D25E
:10048000043208D0D2071CBF11F8013B00F8013B31
:1004900001D30B8803806046704700BF082A13D33E
:1004A0008B078DD010F003038AD0C3F10403D21A56
:1004B000DB071CBF11F8013B00F8013B80D331F88A
:1004C000023B20F8023B7BE7043AD9D3013A11F80A
:1004D000013B00F8013BF9D20B7803704B78437075
:1004E0008B7883706046704770B4860746D0541E80
:1004F000002A41D0CAB2034602E014F1FF343BD3D4
:1005000003F8012B9D07F8D1032C2ED9CDB245EA73
:1005100005250F2C45EA054519D903F11002264699
:10052000103E0F2E42F8105C42F80C5C42F8085C5A
:1005300042F8045C02F11002F2D8A4F1100222F099
:100540000F0204F00F041032032C13440DD91E4681
:100550002246043A032A46F8045BFAD8221F22F006
:1005600003020432134404F003042CB1C9B21C4446
:1005700003F8011B9C42FBD170BC70471446034634
:10058000C2E700BF91B151F8043C0439002BB8BF59
:10059000C9181F4B1A68FAB18A4230B40AD90868E0
:1005A0000C18A24226D04A60196030BC70478B42BA
:1005B00003D81A465368002BF9D1146815198D42D7
:1005C0000DD006D808680C189C4219D04B605160B9
:1005D000EBE70C230360E8E74A601960704709689D
:1005E0000C44111999421460DFD10ACB0C445360BA
:1005F0001460DAE7146852684A6020440860D3E760
:100600001C685B684B60204408605160CDE700BF08
:100610000C02002070B5CC1C24F0030408340C2C10
:1006200038BF0C24002C06463BDBA14239D8274DAD
:10063000296851B10A68121B04D436E01A68121BEB
:100640001AD519464B68002BF8D16968002937D0B4
:100650002146304600F06CF8431C22D0C31C23F026
:100660000305A84205D0291A304600F061F8013090
:1006700017D02C602B4604E00B2A0DD91A601344C6
:100680001C6003F10B0020F007001A1D821A02D033
:100690005142995070BD70BD8B420ED05A684A606D
:1006A000EFE70C233360002070BD0B2A03D84A68A3
:1006B0000B462A60E5E70B46E0E70A460B46F8E7FB
:1006C000304600F035F86860C2E700BF0C02002039
:1006D0000EB410B5044683B018B183690BB900F0AD
:1006E00031F906A803460190059AA168204600F05A
:1006F000D7F903B0BDE8104003B070470FB410B590
:100700000A4B1C6882B024B1A36913B9204600F0DB
:1007100019F905A803460190049AA168204600F043
:10072000BFF902B0BDE8104004B0704700000020DF
:1007300038B5074C002305460846236001F04AFA05
:10074000431C00D038BD2368002BFBD02B6038BD84
:100750005475002000207047014900F039B900BFEE
:10076000AD1400080020704770B54A1E682505FBCF
:1007700002F50E4605F17401FFF74CFF044640B147
:1007800000210C30666005F168022160A060FFF76F
:10079000ABFE204670BD00BF204B70B51D68AB6935
:1007A00006465BB348356B68AC68013B05D521E074
:1007B000013B5A1C04F168041CD0B4F90C20002A37
:1007C000F6D100254FF6FF720123E281A381656611
:1007D0002560A560656025616561A56129460822DF
:1007E00004F15C00FFF780FE6563A563A564E56422
:1007F000204670BD286828B10546D4E7284600F099
:100800000FF8CFE704213046FFF7AEFF286000283D
:10081000F2D10C2304463360EAE700BF90000108E0
:100820003D4B3E491A682DE9F04F90424FF00003CE
:100830008364C364036508BF012383B008BF836179
:1008400081620746FFF7A8FF78603846FFF7A4FFEC
:10085000B8603846FFF7A0FF7D68F86000240423E5
:10086000AB812C606C60AC606C66EC812C616C615F
:10087000AC61214605F15C000822FFF735FEBE6839
:10088000DFF89CB0DFF89CA0DFF89C90DFF89C803C
:10089000C5F824B001230922C5F828A0C5F82C907A
:1008A000C5F830802D622146F381B28134607460D6
:1008B000B460746634617461B46106F15C0008224E
:1008C0000193FFF711FEFD68366212200222C6F87E
:1008D00024B0C6F828A0C6F82C90C6F8308021466F
:1008E000A881EA812C606C60AC606C662C616C61E4
:1008F000AC6105F15C000822FFF7F6FD019B2D625B
:10090000C5F824B0C5F828A0C5F82C90C5F83080EB
:10091000BB6103B0BDE8F08F9000010859070008E3
:10092000F110000819110008551100087511000890
:10093000024B0349186800F04BB800BF9000010853
:10094000AD140008836903B96AE77047704700BFB8
:10095000704700BF704700BF704700BF024B03499C
:10096000186800F00FB800BF0000002065070008FD
:10097000024B0349186800F005B800BF00000020D2
:10098000550700082DE9F04110F148071BD08846B3
:1009900000267D68BC68013D0FD4A389012B05F1B9
:1009A000FF3506D9B4F90E300133204601D0C047D7
:1009B00006436B1C04F16804EFD13F68002FE8D1B7
:1009C0003046BDE8F0813E463046BDE8F08100BFCC
:1009D0002DE9F84310F148071FD0884606464FF02E
:1009E00000097D68BC68013D11D4A389012B05F184
:1009F000FF3508D9B4F90E3001332146304602D014
:100A0000C04749EA00096B1C04F16804EDD13F6856
:100A1000002FE6D14846BDE8F883B9464846BDE810
:100A2000F88300BF9368013B002B10B4936008DB90
:100A3000CCB21368581C1060197020465DF8044B46
:100A400070479469A34202DBCCB20A2CF1D15DF865
:100A5000044B00F093BB00BF93B1F8B514460F46AA
:100A60000646D51801E0AC4208D03A4614F8011BFE
:100A70003046FFF7D7FF431CF5D1F8BD0020F8BD85
:100A800000207047936810B5144613B95360184698
:100A900010BD00F04FFD0023A360636010BD00BFD8
:100AA0002DE9F04F9DB0894614460393824618B154
:100AB0008369002B00F00A818A4B994500F00C8174
:100AC000894B994500F00B81884B994508BFDAF8AE
:100AD0000C90B9F80C30180740F1EE80D9F81030BE
:100AE000002B00F0E98030238DF82A302378804EE7
:100AF0000021202209918DF829200127002B00F0E8
:100B00008480252B254603D117E0252B00F0858016
:100B100015F8013F002BF8D1B5EB040B75D0224638
:100B20005B4649465046FFF797FF01306DD0099B61
:100B30002A785B440993002A67D000234FF0FF32E4
:100B400001350493079306938DF853301A93059259
:100B500004E0049A07FA03F3134304932978052267
:100B6000304600F0EDFE2C46831B01350028F0D105
:100B7000049BD90644BF20228DF8532021781A0700
:100B800044BF2B228DF853202A2969D0A1F13002CD
:100B9000092A0BD8079B14F8011F03EB830302EB10
:100BA0004303A1F13002092AF5D907932E293FD03A
:100BB000504D0322284600F0C3FE38B1049B401B71
:100BC000402202FA00F003430134049321784A489A
:100BD0008DF828100622013400F0B2FE002849D01A
:100BE000464BF3B103AB00934A46454B04A950462C
:100BF000AFF300808046B8F1FF3F06D0099B434425
:100C000009932378002B7FF47CAFB9F80C305B0696
:100C100059D409981DB0BDE8F08FB5EB040B8CD00A
:100C20007DE7039B073323F0070308330393E5E7CE
:100C300061782A2904F1010026D0A1F130020023B5
:100C4000092A05930446B3D814F8011F03EB830364
:100C500002EB4303A1F13002092AF5D90593A7E776
:100C6000039A11680432002903921FDB079161780F
:100C700001349BE703AB00934A46214B04A950463D
:100C800000F0E6F88046B6E7039B1A680592002A52
:100C900003F104030393B8BF4FF0FF3204F10203E2
:100CA000AEBFA178A17805921C4681E7494243F086
:100CB000020307910493DAE74946504600F0D6FA5A
:100CC00000283FF410AF4FF0FF30A3E7FFF73AFEE4
:100CD000044B99457FF4F4AEDAF80490F9E6DAF8BB
:100CE0000890F6E6D4000108B40001089400010859
:100CF00050020108580201085C02010800000000CF
:100D0000590A000810B4044C13460A4601462068EC
:100D10005DF8044BFFF7C4BE000000202DE9F0474A
:100D20000C4691460A698968DDF820808A42B8BF7E
:100D30000A46C9F8002094F8431006461F4611B130
:100D40000132C9F80020236899065DD5D9F8002042
:100D50000232C9F80020236813F0060F19461DD18E
:100D6000E1688A1A002AD8BF194617DD04F1190A6A
:100D7000002505E0E368D9F800209B1AAB420CDDA2
:100D80000123524639463046C047013005F101057E
:100D9000F0D14FF0FF30BDE8F087216894F8433080
:100DA000003318BF01238A060AD5E1185A1C3020E7
:100DB00081F84300224494F8451082F8431002332E
:100DC00004F1430239463046C0470130E1D0236880
:100DD00003F00603042B29D0A36822699342C8BFFD
:100DE0004FF0000930DD9B1A99441A34002501E0C8
:100DF0004D4529D00123224639463046C0470130AF
:100E000005F10105F4D1C4E713F0060F08D1E1683C
:100E1000D9F800208A1A002AD8BF1946A6DCBDE7F7
:100E200094F84330003318BF0123C9E7D9F8001004
:100E3000E068A3682269A0EB0109934229EAE979F5
:100E4000D1DCB9F1000FD0D10020BDE8F08700BFA0
:100E50002DE9F0430C46097E85B06E2906461746FB
:100E60000C98984604F1430C55D00FD8632900F034
:100E70001B8100F2D68000295CD0582940F0E88020
:100E800084F845102268DFF860E213E0732900F06F
:100E9000FD8000F289806F2900F0E480702940F025
:100EA000D780226842F0200222607823DFF83CE2FB
:100EB00084F845300368150603F1040100F1FF8052
:100EC00055064BBF1B881B6801600160D00744BFFB
:100ED00042F020022260002B40F09580226822F030
:100EE000200222601021002284F843206068A06064
:100EF0000028C0F28D80226822F004022260002BBC
:100F000067D1002840F08680654608296FD0ACEB99
:100F10000503236111E023681A0600F1D38013F062
:100F2000400F0368626903F1040101601B6814BF8C
:100F30001A801A60002365462361CDF800803B4685
:100F400003AA21463046FFF7E9FE013021D02A46A8
:100F5000236939463046C04701301AD02368E0681B
:100F600013F0020F039B19D0C21A002A16DD04F1F8
:100F70001909002504E0E068039BC21AAA420DDDAE
:100F800001234A4639463046C047013005F1010584
:100F9000F1D14FF0FF3005B0BDE8F0839842B8BF03
:100FA000184605B0BDE8F08375295BD078294FD18C
:100FB00022687AE76168A1602D200029C3F100034F
:100FC00084F8430021DB22F00402DFF81CE12260F8
:100FD0000A216546B3FBF1F201FB123013461EF8FD
:100FE000002005F8012D002BF4D108298FD12368AA
:100FF000D9078CD5626823699A4288DC302305F8CA
:10100000013C013D83E710216DE7DFF8DCE00A21B8
:10101000002BDED19EF8003084F8423004F1420506
:1010200073E7642901D0692912D122680368150683
:1010300003F1040152D455064BBFB3F900301B68CD
:1010400001600160002BB5DBDFF89CE00A214DE771
:10105000012384F84210236104F14205002384F83F
:1010600043306AE723681A0633D413F0400F03684D
:1010700003F1040215BF1B881B68026002606F2920
:1010800014BF0A210821DFF860E02CE703686268DA
:10109000191D01601D680021284600F051FC00B3B5
:1010A000401B60602061D9E703681A68191D01239D
:1010B000016004F1420584F842202361CEE701601B
:1010C0001B6803E703686269191D01601B681A60E9
:1010D00030E703681A1D02601B68D0E701601B68D7
:1010E000B0E76068DEE700BF64020108780201082B
:1010F00010B50C46B1F90E1000F0FEFC002803DB21
:10110000636D0344636510BDA38923F48053A381F9
:1011100010BD00BF002070472DE9F0411646B1F91F
:101120000C201F46D3050C46054607D50022022396
:10113000B1F90E1000F076FBB4F90C20B4F90E10E2
:1011400022F48052A2813B4632462846BDE8F04157
:1011500000F076B810B50C46B1F90E1000F062FB45
:10116000A389421C0EBF23F4805343F4805360656F
:10117000A38110BDB1F90E1000F0F2B8F8B50D461C
:101180001446064610B18369002B42D0254B9C4281
:1011900044D0254B9C4243D0244B9C4208BFF4686A
:1011A000A389A269A2601A0722D5236903B3226822
:1011B0006169D31AEDB28B422F4621DA0133A1685F
:1011C000501C0139A1602060157062699A4206D0F6
:1011D000A389DB0701D50A2D01D03846F8BD214689
:1011E000304600F063F90028F7D04FF0FF37F4E7FE
:1011F0002146304600F03AF80028F6D12369D6E7B8
:101200002146304600F052F90028EED12268012331
:10121000D5E7FFF797FB034B9C42BAD17468BFE751
:10122000B468BDE7D4000108B400010894000108C7
:10123000024B0A4601461868FFF7A0BF00000020D5
:1012400070B50D46084C114606461A46284600233E
:10125000236000F0CDFC431C00D070BD2368002B40
:10126000FBD0336070BD00BF54750020384B70B5A3
:101270001D6806460C4615B1AB69002B42D0354BB4
:101280009C4245D0344B9C4258D0344B9C4208BFC2
:10129000EC68B4F90C2093B219070CD52069A8B1F9
:1012A00013F001021ED0636900225B42A361A260B9
:1012B000F0B1002070BDDD0642D558072AD4206960
:1012C00042F00803A3819BB20028E9D103F4207205
:1012D000B2F5007FE4D03046214600F0E7FAA3895A
:1012E0002069DDE7990758BF6269A2600028E0D154
:1012F000B4F90C301A06DDD543F04003A3814FF05A
:10130000FF3070BD2846FFF71DFB124B9C42B9D140
:101310006C68BEE7616B51B104F14403994204D09B
:101320003046FFF72FF9B4F90C2000236363002344
:101330002069636022F024022060C1E7AC68A8E75E
:1013400042F04002092333604FF0FF30A28170BDAC
:1013500000000020D4000108B40001089400010836
:1013600038B5074C002305460846236000F00AFC08
:10137000431C00D038BD2368002BFBD02B6038BD48
:10138000547500208B891A072DE9F0410D468046DF
:1013900033D44A68002A67DDEC6A002C45D000226D
:1013A000D8F80060C8F8002013F4805260D06A6D4D
:1013B0005F0705D569686B6B521A0BB12B6CD21A9B
:1013C0000023296A4046A047441C39D0AB892A69CA
:1013D0002A60DB044FF000026A6043D4696BC8F8EE
:1013E000006011B305F14403994202D04046FFF773
:1013F000C9F800206863BDE8F0810E69AEB10C68E1
:101400000E6098070CBF4B690023A41B8B600AE099
:1014100023463246AF6A296A4046B8470028A4EB03
:101420000004064404DD002CF2DC0020BDE8F0815D
:10143000AB8943F04003AB814FF0FF30BDE8F08152
:10144000D8F800201D2AF3D8174BD340DB4313F004
:101450000103EDD1A9892C696B60C9042C60BDD54D
:10146000002ABBD16865B9E70A6C002A94DCDCE786
:101470000123296A4046A047431C024602D0AB899B
:10148000EC6A95E7D8F80030002BF8D01D2B01D07E
:10149000162B02D1C8F80060C7E7AB8943F04003C0
:1014A000AB81BDE8F08100BF010040200B6933B380
:1014B00010B5044682B008B18369ABB1114B9942B3
:1014C00019D0114B994218D0104B994208BFE168CE
:1014D000B1F90C3013B9002002B010BD204602B0A3
:1014E000BDE81040FFF74EBF0191FFF72BFA0199BD
:1014F000044B9942E5D16168EAE7A168E8E700207A
:10150000704700BFD4000108B4000108940001082E
:1015100020B1054B01461868FFF7C8BF034B0449CB
:101520001868FFF755BA00BF0000002090000108BE
:10153000AD1400089368002B73D02DE9F04F8B8910
:1015400083B00C4619070090164626D5226922B3AF
:1015500013F0020035682CD04FF00009B04FC84698
:10156000B246B84543464A4628BF3B460098B8F1C4
:10157000000F50D0216AA66AB047002858DDDAF87B
:1015800008301B1A8144A8EB0008CAF80830002B69
:10159000E7D1002003B0BDE8F08F21460098FFF7A7
:1015A00065FE002840F03381A389356813F00200FE
:1015B000D2D113F0010945D14F46019637B39A05B0
:1015C000D4F8088040F183804745C346C0F0AB8023
:1015D00013F4906F40F0AC802068BA465A464946F2
:1015E00000F0FEF9A2682368A2EB08025B44A26047
:1015F0002360019A9368A3EB0A03D144A7EB0A077F
:101600009360002BC5D0A389002FD8D1D5F80090C6
:101610006F680835D2E7D5F80090D5F80480083512
:101620009FE70020704721460098FFF73FFF70B307
:10163000B4F90C3043F040034FF0FF30A38103B006
:10164000BDE8F08F814633464E46A8469A464D4641
:101650004EB380B3206823696269B145CB4628BF89
:10166000B34698425F4604D9A36813449B4500F3F0
:10167000A68093454BDB1346A76A216A00982A4649
:10168000B847071ED4DDB9EB0709CCD00120DAF842
:101690000830DB1B3D44F61BCAF80830002B3FF432
:1016A00078AF002ED5D108F1080313E96000984601
:1016B0000833002EF9D032460A21284600F040F9BE
:1016C000002800F0A1800130A0EB0509C2E72068E6
:1016D0002369984202D863699F425DD2B84528BF0A
:1016E000B8464246494600F07BF9A3682268A3EB5E
:1016F00008034244A36022600BB1C24679E7214649
:101700000098FFF7D3FE002892D1C24671E75A46EF
:10171000294600F065F9A2682368A2EB0B025B443E
:10172000A2602360AFE72068B846BA46BB4655E7DB
:1017300062692068216902EB4208A0EB010A08EB0C
:10174000D8780AF101004FEA68083844404542461B
:1017500084BF804642465B0544D511460098FEF79B
:1017600059FF8346002855D052462169FEF722FED4
:10177000A38923F4906343F08003A3810BEB0A0059
:10178000A8EB0A03C4F810B0C4F814802060A3606A
:10179000B846BA46BB4621E76FF00041B94228BFC0
:1017A00039464A4691FBF3F10098A66A03FB01F320
:1017B000216AB047B0F1000A3FF71BAF38E71A467D
:1017C0002946019300F00CF92268019B00981A4405
:1017D00022602146FFF76AFE019B00287FF428AFB4
:1017E0001F4650E7009800F05FF983460028C5D1F6
:1017F000009D21692846FEF7C5FEB4F90C300C2285
:1018000023F080032A6015E706F1010922E74FF073
:10181000FF30BFE6009A0C231360B4F90C3009E7DF
:1018200000FCFF7F70B50D46084C114606461A466F
:1018300028460023236000F0BDF9431C00D070BD92
:101840002368002BFBD0336070BD00BF54750020AF
:1018500070B50C46B1F90E10002990B015461E4621
:1018600013DB01AA00F05EF900280EDB029A02F4F5
:101870007042A2F50052B2FA82F252094FF480632C
:10188000002032602B6010B070BDA38900221B06BF
:10189000326004D5402300202B6010B070BD4FF49F
:1018A000806300202B6010B070BD00BF8A89920752
:1018B0000B4606D501F1470201211A601A615961F0
:1018C0007047F0B583B001AB6A460C460546FFF79A
:1018D000BFFF009906462846FEF79CFEB4F90C307F
:1018E000D0B1019A124F0099AF6243F08003A381F7
:1018F0002060206161611AB93343A38103B0F0BD58
:101900002846B4F90E1000F021F9B4F90C30002883
:10191000F2D043F00103EFE79A05EFD404F1470258
:1019200043F002030121A381226022616161E5E7A6
:10193000590700080000000000000000000000003F
:1019400001F0FF01102A2BDB10F0070F08D010F870
:10195000013B013A8B422DD010F0070F42B3F6D174
:10196000F0B441EA012141EA014122F007047FF08D
:1019700000070023F0E80256083C85EA010586EAE4
:10198000010685FA47F5A3FA87F586FA47F6A5FA20
:1019900087F68EB9EED1F0BC01F0FF0102F007022C
:1019A00032B110F8013B013A83EA010313B1F8D1D7
:1019B0000020704701387047002D06BF35460338B8
:1019C000073815F0010F07D1013015F4807F02BFF1
:1019D000013015F4C03F0130F0BC0138704700BF42
:1019E0008842F0B50DD98B1898420AD28418002A83
:1019F00051D0224613F8014D02F8014D9942F9D118
:101A0000F0BD0F2A48D941EA00039B0746D100F1F7
:101A1000100401F11003154653F8106C44F8106CD3
:101A200053F80C6C44F80C6C53F8086C44F8086CD0
:101A3000103D53F8046C44F8046C0F2D03F11003AF
:101A400004F11004E8D8A2F1100323F00F0302F010
:101A50000F0E1033BEF1030F1944034421D91E1F8A
:101A60000D467446043C55F8047B46F8047F032C6D
:101A7000F8D8AEF1040424F00304043421442344D0
:101A800002F0030262B1013B0A4411F8014B03F872
:101A9000014F8A42F9D1F0BD0346F3E70346F2E76E
:101AA000F0BD7246EEE700BFF8B51446F9B1C2B119
:101AB00006460D4600F05CF8844201D82846F8BD81
:101AC00021463046FEF7A6FD074670B1224629465C
:101AD000FEF770FC294630463D46FEF753FD28468A
:101AE000F8BDFEF74FFD2546E8E70546E6E7114657
:101AF000BDE8F840FEF78EBD70B50D46084C1146A6
:101B000006461A4628460023236000F05BF8431C73
:101B100000D070BD2368002BFBD0336070BD00BFC8
:101B20005475002038B50B46074C0546114618463B
:101B30000023236000F02EF8431C00D038BD23683A
:101B4000002BFBD02B6038BD5475002038B5074CF6
:101B5000002305460846236000F024F8431C00D00B
:101B600038BD2368002BFBD02B6038BD5475002096
:101B700051F8040C0028A0F10400BCBF0B58C01899
:101B8000704700BF024B58221A604FF0FF30704779
:101B900054750020024B58221A604FF0FF307047F6
:101BA00054750020024B58221A600020704700BF75
:101BB00054750020024B58221A604FF0FF307047D6
:101BC00054750020024B58221A604FF0FF307047C6
:101BD00054750020044A05491368002B08BF0B46C2
:101BE00018441060184670471402002058750020F1
:101BF000024B58221A604FF0FF3070475475002096
:101C000053B94AB9002908BF00281CBF4FF0FF3163
:101C10004FF0FF3000F07AB9ADF1080C6DE904CE59
:101C200000F006F8DDF804E0DDE9022304B07047B7
:101C30002DE9F0478C460D460446089E002B51D1F5
:101C40008A4217466DD9B2FA82FEBEF1000F0BD060
:101C5000CEF1200C01FA0EF520FA0CFC02FA0EF778
:101C60004CEA050C00FA0EF44FEA174A250CBCFBAF
:101C7000FAF81FFA87F90AFB18CC45EA0C4508FB6D
:101C800009F3AB420AD9ED1908F1FF3280F0238144
:101C9000AB4240F22081A8F102083D44ED1AA4B203
:101CA000B5FBFAF00AFB105544EA054400FB09F9BC
:101CB000A14509D9E41900F1FF3380F00A81A1455B
:101CC00040F2078102383C44A4EB090440EA084092
:101CD0000021002E61D024FA0EF4002334607360DA
:101CE000BDE8F0878B4207D9002E54D0002186E84A
:101CF00021000846BDE8F087B3FA83F1002940F0DF
:101D00008E80AB4202D3824200F2FA80841A65EBE5
:101D100003050120AC46002E3FD086E81010BDE838
:101D2000F08712B90127B7FBF2F7B7FA87FEBEF1C9
:101D3000000F34D1EB1B3A0C1FFA87FC0121B3FBD7
:101D4000F2F8250C02FB183345EA03450CFB08F3B7
:101D5000AB4207D9ED1908F1FF3002D2AB4200F2D5
:101D6000D1808046ED1AA3B2B5FBF2F002FB10550C
:101D700043EA05440CFB00FCA44507D9E41900F133
:101D8000FF3302D2A44500F2B8801846A4EB0C043D
:101D900040EA08409DE731463046BDE8F087CEF185
:101DA000200405FA0EF307FA0EF720FA04F83A0CAD
:101DB00025FA04F448EA0308B4FBF2F14FEA1845A7
:101DC00002FB11441FFA87FC45EA044501FB0CF3B2
:101DD000AB4200FA0EF409D9ED1901F1FF3080F0A1
:101DE0008A80AB4240F2878002393D44EB1A1FFAE9
:101DF00088F5B3FBF2F002FB103345EA034500FB24
:101E00000CF3AB4207D9ED1900F1FF386FD2AB42AA
:101E10006DD902383D44EB1A40EA01418FE7C1F128
:101E2000200722FA07F88B4005FA01F448EA030379
:101E300020FA07FE4FEA134CFD404EEA040EB5FBB4
:101E4000FCF94FEA1E440CFB19551FFA83F844EACB
:101E5000054509FB08F4AC4202FA01F200FA01FA66
:101E600008D9ED1809F1FF3043D2AC4241D9A9F1AC
:101E700002091D442D1B1FFA8EFEB5FBFCF00CFB66
:101E800010554EEA054400FB08F8A04507D9E418B0
:101E900000F1FF3529D2A04527D902381C4440EA79
:101EA0000940A4EB0804A0FB02894C45C6464D46F8
:101EB00015D312D056B1BAEB0E0364EB050404FA45
:101EC00007F7CB401F43CC40376074600021BDE86A
:101ED000F0871846F8E69046E0E6C245EAD2B8EB4D
:101EE000020E69EB03050138E4E72846D7E74046D0
:101EF00091E78146BEE7014678E702383C4445E772
:101F0000084608E7A8F102083D442BE7704700BFE8
:101F1000084B094A1A6000225A609A604FF48042C6
:101F2000DA604FF400321A6108225A6101229A6184
:101F3000704700BFCC0B0020007000522DE9F04F1D
:101F40008DB000240794089409940A940B94794B5B
:101F5000D3F8E02042F01002C3F8E020D3F8E020EC
:101F600002F010020092009AD3F8E02042F004023E
:101F7000C3F8E020D3F8E02002F004020192019AB5
:101F8000D3F8E02042F02002C3F8E020D3F8E020AC
:101F900002F020020292029AD3F8E02042F00102FD
:101FA000C3F8E020D3F8E02002F001020392039A84
:101FB000D3F8E02042F00202C3F8E020D3F8E0209A
:101FC00002F002020492049AD3F8E02042F00802E0
:101FD000C3F8E020D3F8E02002F008020592059A49
:101FE000D3F8E02042F04002C3F8E020D3F8E0301C
:101FF00003F040030693069BDFF848912246302108
:10200000484606F0C8FA01228021484606F0C3FA85
:10201000494F22462021384606F0BDFADFF82881D4
:10202000224640F20221404606F0B5FADFF81CA134
:1020300022460C21504606F0AEFADFF814B12246D3
:102040003021584606F0A7FA4FF4005307933B4D52
:102050000895099407A9384606F09EF9B02307931E
:102060000126089609940A9407A9484606F094F9AF
:102070004FF4806307930895099407A9484606F032
:102080008BF920230793089609940A9407A93846E8
:1020900006F082F940F2011307930895099407A905
:1020A000404606F079F940F2022307930896099416
:1020B0000A9407A9404606F06FF904230793089491
:1020C000099407A9404606F067F90C230793089680
:1020D00009940A9407A9504606F05EF91023079365
:1020E0000895099407A9504606F056F980230793EE
:1020F0000894099407A9384606F04EF9302307934F
:10210000089609940A9407A9584606F045F902234F
:1021100007930895099407A9094806F03DF9224656
:102120002146062008F072F9062008F09FF90DB04C
:10213000BDE8F08F00440258000802580000111159
:1021400000100258001402580004025800180258E7
:10215000000C025800B583B0394BD3F8D82042F0B8
:102160000102C3F8D820D3F8D82002F0010200926F
:10217000009AD3F8D82042F00202C3F8D820D3F84E
:10218000D83003F002030193019B002211460B207B
:1021900008F03CF90B2008F069F9002211460C20E8
:1021A00008F034F90C2008F061F9002211460D20E6
:1021B00008F02CF90D2008F059F9002211460E20E4
:1021C00008F024F90E2008F051F9002211460F20E2
:1021D00008F01CF90F2008F049F9002211461020E0
:1021E00008F014F9102008F041F9002211461120DE
:1021F00008F00CF9112008F039F9002211462F20BF
:1022000008F004F92F2008F031F900221146382097
:1022100008F0FCF8382008F029F90022114639208E
:1022200008F0F4F8392008F021F9002211463C208A
:1022300008F0ECF83C2008F019F903B05DF804FB55
:102240000044025838B51148114B0360032545601E
:10225000002484604461C461C460C4620463446354
:1022600008232A46042109F01DF90A480A4B036095
:10227000456084604461C461C460C46204634463B3
:1022800008232A46042109F00DF938BD8C160020D8
:1022900004580140DC0D00202458014038B5114895
:1022A000114B036003254560002484604461C461D0
:1022B000C460C4620463446308232A46042109F00D
:1022C000F1F80A480A4B0360456084604461C461C8
:1022D000C460C4620463446308232A46042109F0ED
:1022E000E1F838BD000A0020045C014040020020F3
:1022F000245C014070B51148114B03600325456013
:102300000226866000244461C461C462046344639D
:1023100008232A46042109F0C5F80A480A4B03603D
:10232000456086604461C461C462046344630823F9
:102330002A46042109F0B6F870BD00BFC807002086
:1023400004600140881300202460014038B5104823
:10235000104B036003254560856000244461C4611F
:10236000C4620463446308232A46042109F09AF8EE
:1023700009480A4B0360456085604461C461C462DA
:102380000463446308232A46042109F08BF838BD0E
:10239000740E002004540058340B002024540058BC
:1023A00008B51148114B03604FF4800343600023CC
:1023B00083600722C260036143614FF00052826173
:1023C0004FF08042C261036243628362C36243632F
:1023D0008363C363036443648364C36403654365C5
:1023E00083650AF0F9FF08BDF415002000300140B4
:1023F00008B51148114B03604FF48003436000237C
:1024000083600722C260036143614FF00052826122
:102410004FF08042C261036243628362C3624363DE
:102420008363C363036443648364C3640365436574
:1024300083650AF0D1FF08BD640800200038004021
:1024400008B51148114B03604FF48003436000232B
:1024500083600722C260036143614FF000528261D2
:102460004FF08042C261036243628362C36243638E
:102470008363C363036443648364C3640365436524
:1024800083650AF0A9FF08BD540D0020003C004000
:1024900008B51148114B03604FF4800343600023DB
:1024A00083600722C260036143614FF00052826182
:1024B0004FF08042C261036243628362C36243633E
:1024C0008363C363036443648364C36403654365D4
:1024D00083650AF081FF08BD3011002000340140FF
:1024E00008B51148114B03604FF48003436000238B
:1024F00083600722C260036143614FF00052826132
:102500004FF08042C261036243628362C3624363ED
:102510008363C363036443648364C3640365436583
:1025200083650AF059FF08BDC40C00200014005850
:1025300038B5104C104B23604FF4612363600025C5
:10254000A560E56025610C236361A561E5612562F5
:102550006562A56220460CF038FD294620460CF045
:10256000C8FD294620460CF0E9FD20460CF09DFDF3
:1025700038BD00BF9C1000200010014030B58DB068
:102580000024089409940A940B94039404940594E9
:1025900006940794009401940294164D164B2B60F8
:1025A0006C60AC604FF6FF73EB602C616C61AC61EA
:1025B00028460BF0D3FC4FF40053089309940A9477
:1025C0000B9408A928460BF0DFFD4FF480330393EA
:1025D000502304930594079403A928460BF09EFE0C
:1025E0002023009301940294694628460BF0C2FE12
:1025F0000DB030BD201400200000014030B58DB07A
:1026000000240794089409940A940B940494059464
:1026100006940094019402940394184D184B2B6077
:102620006C60AC60FF23EB602C616C61AC61284690
:102630000BF094FC28460BF0C0FC0723079308948A
:1026400007A928460BF06AFE04940594069404A991
:1026500028460BF08FFE009401230193029403940B
:102660002246694628460BF029FD022301930422E5
:10267000694628460BF022FD0DB030BDEC08002065
:102680000004014038B50F4C0F4B2360A3F13E53BB
:10269000A3F57D23A3F2446363600025A5600123B5
:1026A000E36025616561A561E5612562204607F06B
:1026B000EBFF2946204608F0C1FB2946204608F0DA
:1026C000EBFB38BD980A00200054004038B50F4C91
:1026D0000F4B2360A3F13E53A3F57D23A3F64423C0
:1026E00063600025A5600123E36025616561A56144
:1026F000E5612562204607F0C7FF2946204608F01D
:102700009DFB2946204608F0C7FB38BDE40A00209F
:102710000058004070B5CCB04C22002139A8FDF71C
:10272000E3FE2022002131A8FDF7DEFEBC220021BD
:1027300002A8FDF7D9FE022007F0F0FD0023019367
:10274000344BDA6A22F00102DA62DB6A03F0010339
:102750000193314A936923F4404343F480439361E6
:10276000936903F440430193019B2B4B9B6913F442
:10277000005FFAD02223399301233C9340253D95F5
:102780003F930223429300244394042644960A2252
:1027900045924693479348930C2249924A934B940F
:1027A00039A803F0D3FC3F233193032332933394AE
:1027B00008233493359536954FF4806337933895D5
:1027C000214631A804F0DEF8144B029315941694B8
:1027D00017964FF4807318934FF4804319934FF476
:1027E00040331A93182320934FF4005322934FF44D
:1027F000401323934FF400032B934FF080632C93EB
:102800004FF040532D9302A804F056FB07F0B0FDA3
:102810004CB070BD0004005800480258097F058084
:102820002DE9F041ADF5607DBFF34F8FBFF36F8FA2
:10283000D94B0024C3F85042BFF34F8FBFF36F8FC3
:102840005A6942F400325A61BFF34F8FBFF36F8F62
:1028500007F058FEFFF75EFFFFF770FBFFF77AFC0B
:10286000FFF7F0FCFFF71AFDFFF744FDFFF76EFDE1
:10287000FFF796FDFFF7BCFDFFF7E2FDFFF708FE4F
:10288000FFF72EFEFFF754FEFFF778FEFFF7B6FEC8
:10289000FFF7F8FEFFF71AFFFFF73AFB00F08AFE9A
:1028A00000F06EFE00F0DAFDBC4F224610213846E3
:1028B00005F071FEBA4E22461021304605F06BFE3F
:1028C00022462021B74805F066FEB74D2246042176
:1028D000284605F060FE22462021384605F05BFEC2
:1028E00022462021304605F056FEDFF8D8822246E7
:1028F0000221404605F04FFE22460821284605F0F9
:102900004AFE642007F03EFE01222021384605F0F1
:1029100042FE01222021304605F03DFE0122022127
:10292000404605F038FE01220821284605F033FE16
:10293000642007F027FE01238DF80E338DF80F3346
:10294000072C40F221810023072B40F23F81012315
:102950008DF825334FF47A63ADF820330023ADF8BA
:1029600022338DF824338DF82633072B40F236813D
:1029700094AD8E4B96938E4B97934FF40063ADF8C6
:1029800060324FF490773A4696A96846FDF712FDFB
:1029900095E80C00DFA800F02EFC012380226421C2
:1029A000DF9800F0CAFA002301226421DF9800F0CA
:1029B000C4FA012007F0E6FD01231A466421DF98DE
:1029C00000F0BBFA7B4EDF9B33604AAC4FF4947847
:1029D000424629462046FDF7EDFC774BA360774B36
:1029E000E3604FF4806323823A464CA96846FDF7C2
:1029F000E1FC94E80C0049A800F0FDFB01238022D3
:102A00006421499800F099FA002301226421499831
:102A100000F093FA012007F0B5FD01231A46642166
:102A2000499800F08AFA499B73604246294620463D
:102A3000FDF7C0FC624BA360624BE3604FF4805330
:102A400023823A464CA96846FDF7B4FC94E80C0092
:102A500049A800F0D0FB012380226421499800F0AE
:102A60006CFA002301226421499800F066FA0120E3
:102A700007F088FD01231A466421499800F05DFAA9
:102A8000499BB360424629462046FDF793FC4E4BD6
:102A9000A360454BE3604FF4807323823A464CA910
:102AA0006846FDF787FC94E80C0049A800F0A3FBFA
:102AB000012380226421499800F03FFA002301227B
:102AC0006421499800F039FA012007F05BFD0123E9
:102AD0001A466421499800F030FA499BF36064205B
:102AE00007F050FD0024032C40F388800324002CC1
:102AF00080F2B380012007F045FD284F002210210D
:102B0000384605F048FD264E00221021304605F0DB
:102B100042FD244D00222021284605F03CFD224C98
:102B200000220421204605F036FD642007F02AFD2E
:102B300001221021384605F02EFD012210213046D9
:102B400005F029FD01222021284605F024FD01225F
:102B50000421204605F01FFD642007F013FD00222C
:102B60001021384605F017FD00221021304605F0EF
:102B700012FD00222021284605F00DFD002204212F
:102B8000204605F008FD9EE094AB2344002283F824
:102B9000C0200134E4B2D3E600ED00E0000C02589E
:102BA000001402580008025800180258C40C0020F3
:102BB000001002587C160020540D0020000002581E
:102BC00064080020000402583011002094AA1A441E
:102BD000032182F8C8100133DBB2B5E694AAD018FD
:102BE000002180F8D71003F1380042F8201003F1DB
:102BF000400042F820100133DBB2B6E67C4D1423CE
:102C000085F82C32802385F82D327A4E56F8243000
:102C100000221989586805F0BEFC56F8243005F5E5
:102C20001372186841F288330093022302EB4412B6
:102C300005F50B710AF078FC56F824300122198949
:102C4000586805F0A8FC6B4B53F8243018680AF05C
:102C5000B0FF0128F7D1013445E7654D122385F80F
:102C60002C32492385F82D32624E56F8243000224A
:102C70001989586805F08FFC56F8243005F5137251
:102C8000186841F288330093022302EB441205F5E1
:102C90000B710AF049FC56F8243001221989586852
:102CA00005F079FC534B53F8243018680AF081FF83
:102CB0000128F7D1642007F065FC013C17E74E4B73
:102CC0001B68002B37D14D4B1B68002BF7D000221F
:102CD0004A4B1A60464CE02204F51371484808F04C
:102CE0005FFCE02204F51B71464808F059FCE02225
:102CF00004F52371444808F053FCE02204F52B71DD
:102D0000424808F04DFC3E4808F03AFE0128FAD14E
:102D10003C4808F035FE0128FAD13B4808F030FE67
:102D20000128FAD1394808F02BFE0128FAD10122F6
:102D3000314B1A60C3E700272F4B1F602C4BA0229A
:102D400083F8002132490A78501C087083F8012169
:102D500024E007EB4702D300023300EB40021344A8
:102D60008400A51C224901EB4712154495F84C62DA
:102D7000CD1885F800615D1C661C164496F84C62FF
:102D80000D4485F800610233224492F84C220B4432
:102D900083F8002101300728DBDD0137032F01DC38
:102DA0000020F8E7002102290DDC01F131035B006E
:102DB0000F4AD418002084F800010133134483F82B
:102DC00000010131EFE7C022094B83F86821114867
:102DD0000BF0E8FC2028FAD10F4C692221460D485F
:102DE0000BF038FB6921204600F04CFE6BE700BF7A
:102DF000000000307C160020180200201C02002079
:102E0000400200208C160020DC0D0020000A00206B
:102E1000640000209C100020000100300122014BC2
:102E20001A6070471C02002070477047002311B3DE
:102E30008022E2B110B403E05B00DBB2520862B161
:102E40000478224214BF01240024B4EBD31FF3D032
:102E50005B00DBB283F00703F0E701300139C9B250
:102E600009B18022EBE718465DF8044B704701304A
:102E70000139C9B2DBE7184670470000F0B585B0EC
:102E80000446174641F080058DF80C5000238DF85C
:102E90000D308DF80E3090F8D7309BB10223227A96
:102EA000019302AB009303AB6168206800F06AFAFB
:102EB00006469DF809303B7094F8D73023B1304670
:102EC00005B0F0BD0323EAE704A800F8085D02217D
:102ED000FFF7ACFF9DF80A309842F0D00249034852
:102EE000FDF70CFC0026EAE7F40001087001010878
:102EF00070B584B004460E46154601F07F038DF888
:102F00000C308DF80D2090F8D73073B10223227A5F
:102F1000019302AB009303AB6168206800F032FAC2
:102F2000344484F8415104B070BD022103A8FFF776
:102F30007DFF8DF80E000323E9E710B5441894F8DF
:102F4000414124EA02021A43FFF7D2FF10BD0000FC
:102F5000F8B590F8E13090F8E220934214BF0023D6
:102F6000012390F8E320934214BF0023012390F83B
:102F7000E420934210D0044690F8E51090F8E63033
:102F8000994214BF0023012390F8E720934214BF15
:102F9000002301239A4205D038493948FDF7AEFB9A
:102FA0000020F8BDB0F8EA30B3F5807F50D007D9E3
:102FB000B3F5007F4AD0B3F5806FEDD10C2302E06A
:102FC000802BE9D1002394F8EF20012A42D094F815
:102FD000EE20002A4CD102332A4A02EB83035E5CC6
:102FE000FF2ED9D004F1A80706F0010294F8CD1005
:102FF000384600F0E1F90546C6F3400294F8CE10D9
:10300000384600F0D9F90543C6F3800294F8CF1092
:10301000384600F0D1F90543C6F3C00294F8D01049
:10302000384600F0C9F90543002294F8D410384618
:1030300000F0C2F905430A2000F0C0F9012294F81B
:10304000D410384600F0B8F92843F8BD0823BAE791
:103050000423B8E794F8EE2022B90A4A02EB83036E
:103060005E5CBDE70133074A02EB83035E5CB7E7B2
:103070000333044A02EB83035E5CB1E70C010108F1
:103080003C0101088001010808B590F8D630ABB9C1
:1030900003290AD880F8E12080F8E22080F8E320B4
:1030A00080F8E420FFF754FF08BD80F8E52080F8A1
:1030B000E62080F8E72080F8E820F3E7431883F85B
:1030C000E120930103F0C003C022FFF736FF08BDE3
:1030D000F8B50546144690F8D630BBB9B1F5807FF7
:1030E00006D00BD9B1F5007F02D0B1F5806F07D1C2
:1030F000A5F8EA402846FFF72BFFF8BD8029F7D056
:1031000015491648FDF7FAFA0020F8BDCFB2C1F311
:1031100003226021FFF7ECFE06463A46612128466D
:10312000FFF7E6FE064324040D4A82FB0432E4174F
:10313000C4EBA21297B2D4B23A0A62212846FFF732
:10314000D7FE0643224663212846FFF7D1FE3043CF
:10315000A5F8EA70F8BD00BF280101083C0101088C
:10316000D34D621038B504460D4641B900234022C4
:1031700011212046FFF7E1FE84F8EF5038BD4023CF
:10318000F5E738B504460D4641B900231022112158
:103190002046FFF7D2FE84F8EE5038BD1023F5E745
:1031A000F8B504460D4690F8D6304BB14B0003F00D
:1031B000060306220821FFF7C0FE84F8F050F8BD90
:1031C00000F1A80701F0010290F8D110384600F094
:1031D000F3F80646C5F3400294F8D210384600F0E2
:1031E000EBF80643C5F3800294F8D310384600F09C
:1031F000E3F83043E1E782B0F0B583B0074608A9B1
:1032000081E80C004FF4D470FDF7C4F8002800F0FA
:10321000B4800546A8220AA9FDF7CCF82C4654F83C
:10322000A80B00F0ADF80646204600F0C3F80643B0
:103230009DF8DE3085F8D630012385F8D73000249C
:1032400085F8D84085F83E3185F83F410DE00DF115
:10325000070221462846FFF711FE06432B199DF869
:10326000072083F841210134E4B2642CEFD995F8AA
:10327000D630012B05D095F8D630012B25D000246F
:1032800027E09DF8DF30002BF5D105F29B125A2183
:103290002846FFF7F3FD064301231A465A21284624
:1032A000FFF74BFE0643002385F8D730E3E704F52C
:1032B000A0722A44013221462846FFF7DFFD06436B
:1032C0000134E4B2642CF2D9D9E70024FAE70134DE
:1032D000E4B2072C10D808AB234493F8C8202B196C
:1032E00083F8E12095F8D630012BF0D1214628460D
:1032F000FFF7CAFE0643EAE7BDF8F010A5F8EA10AA
:10330000BDF8F220A5F8EC2095F8D630012B20D09E
:103310009DF8F41085F8EE1095F8D630012B1DD0ED
:103320009DF8F51085F8EF1095F8D630012B1AD0DE
:1033300095F8D630E3B19DF8F61085F8F0102846E0
:10334000FFF72EFF3D60304603B0BDE8F04002B00D
:1033500070472846FFF7BCFE0643D9E72846FFF72B
:1033600010FF0643DCE72846FFF7FCFE0643DFE7D5
:103370002846FFF7EDFD0643DDE74FF0FF36E2E7B5
:103380000020704710B582B0044619469DF81430ED
:1033900041F288320092049A0AF0C6F838B9204601
:1033A0000AF007FC0128FAD1002002B010BDFFF797
:1033B0003CFDF4E7002070470020704708B507F097
:1033C000E1F808BD00B583B0009313460A460146F4
:1033D000034809F08BF800B1012003B05DF804FB4D
:1033E000CC0B002000B583B0009313460A4601467B
:1033F000034809F07DF900B1012003B05DF804FB3A
:10340000CC0B002008B5034809F0C4FD043818BFF0
:10341000012008BDCC0B002008B50146014809F089
:1034200039FD08BDCC0B0020704708B5FFF7FCFF45
:1034300008BD704708B5FFF7FCFF08BD00B583B0B5
:1034400001238DF8073000F0A9F810B900238DF89A
:1034500007309DF8070003B05DF804FB10B5FFF7D7
:10346000EDFF012802D00224204610BD074809F0D4
:10347000A4FD04460028F7D14FF48041034809F029
:103480001BFD0028F0D00124EEE700BFCC0B00208C
:1034900008B50122064B1A70FFF7B4FF20B9044AA1
:1034A000137803F0FE031370014B187808BD00BFBA
:1034B0006500002010B504460122074B1A70FFF783
:1034C000CDFF10B1044B187810BD2046FFF7E0FF88
:1034D000014B1870F6E700BF6500002008B5FFF744
:1034E000D7FF08BD08B5084611461A464FF0FF330E
:1034F000FFF768FF20B9FFF785FF0028FBD108BD63
:10350000012008BD08B5084611461A464FF0FF33A2
:10351000FFF768FF20B9FFF775FF0028FBD108BD52
:10352000012008BD154B1B7813F0010F01D00320BB
:10353000704710B58AB0144603291CD8DFE801F0A3
:1035400002050C1300200AB010BD01A8FFF764FFAC
:10355000079B23600020F6E701A8FFF75DFF089BAB
:1035600023800020EFE701A8FFF756FF089B5B0AC6
:1035700023600020E7E70420E5E700BF65000020A6
:1035800008B5034903480BF061FE034B187008BDF2
:10359000B43B0020C0010108B03B002008B58021E9
:1035A000034804F0F1FF08B1002008BD012008BD68
:1035B0000008025808B50122104911480BF04BFED3
:1035C00080B910490E480BF062FE70B90E490C48E4
:1035D0000CF0D4FC60B90A480BF06DFE58B906F047
:1035E000C7FE08BDFFF721FCEBE7FFF71EFCEDE788
:1035F000FFF71BFCEFE7FFF718FCF0E7680000207F
:103600005C5C0020DC000020B800002010B588B011
:103610000023039304930593069307930268214BB9
:103620009A4201D008B010BD1F4CD4F8E03043F0EE
:103630000203C4F8E030D4F8E03003F00203019351
:10364000019B4FF440430393022304930C230793FD
:103650000DEB0301154804F09FFED4F8D83043F079
:103660000073C4F8D830D4F8D83003F00073029354
:10367000029B002201214A2006F0C8FE4A2006F0E3
:10368000F5FE002201214B2006F0C0FE4B2006F083
:10369000EDFE002201214D2006F0B8FE4D2006F07F
:1036A000E5FEBFE700000440004402580004025851
:1036B00008B500F57171D0F804040BF011FE08BDD7
:1036C00008B5C1EBC10293000344D3F80822D0F837
:1036D00004040BF031FE08BD08B5C1EBC102930034
:1036E00003449A6CD0F804040BF060FE08BD08B5E2
:1036F000D0F804040BF0F6FE08BD10B50446C3680C
:103700002BB1022B0DD0FFF790FB012100E000212F
:10371000D4F804040BF0CFFED4F804040BF0A2FE9E
:1037200010BD0121F4E7000010B50446D0F80404F0
:103730000BF0C4FE2268D2F8003E43F00103C2F849
:10374000003E236A23B1034A136943F00603136161
:1037500010BD00BF00ED00E008B5D0F804040BF088
:10376000B6FE08BD08B5D0F804040BF0CBFE08BDCA
:1037700008B5D0F804040BF0C3FE08BD08B5D0F8B6
:1037800004040BF0C1FE08BD08B5D0F804040BF02A
:10379000BDFE08BD0378012B01D00020704710B595
:1037A00003461748C0F80434C3F8C402154B03603D
:1037B000092343600222C260002303618261C36166
:1037C0000362436201228262C3620363436301F0C6
:1037D000D6F990B90A4C4FF40071204601F02DFF44
:1037E00080220021204601F004FF4FF4BA7201212B
:1037F000204601F0FEFE002010BDFFF716FBE9E7B2
:103800002C5F002000000440D0F8C43211F0800F7B
:1038100008D101F07F01C1EBC1018A00134493F884
:10382000FE01704701F07F01C1EBC1018A00134422
:1038300093F83E00704708B5D0F8C40201F02EFEA0
:1038400008BD18B1022803D003207047002070473C
:103850000120704708B5D0F8C40201F028FAFFF73C
:10386000F0FF08BD10B51C4613462246D0F8C4022E
:1038700001F06EFDFFF7E5FF10BD08B5D0F8C402FA
:1038800001F0A7FDFFF7DDFF08BD08B5D0F8C402C1
:1038900001F037FEFFF7D5FF08BD08B5D0F8C40228
:1038A00001F070FEFFF7CDFF08BD08B5D0F8C402E7
:1038B00001F03AFDFFF7C5FF08BD08B5D0F8C40216
:1038C00001F0F5FDFFF7BDFF08BD08B5D0F8C40253
:1038D00001F0B6FDFFF7B5FF08BD000012230B8015
:1038E000004870478400002004230B800048704784
:1038F000980000200023934216D230B40BE03734F6
:1039000001F8134000015C00013400250D5501331E
:10391000DBB2934206D2040F092CF0D8303401F800
:103920001340EFE730BC70477047000038B50A4BD2
:10393000186804331C6804331B68C01800D138BDF4
:10394000064D0822A91CFFF7D5FF042205F112013C
:103950002046FFF7CFFFF2E700E8F11F9C000020B0
:1039600008B51A230B80FFF7E1FF014808BD00BF2F
:103970009C00002008B50A4628B1054905480CF00E
:1039800033F9034808BD024902480CF02DF9F8E765
:10399000346300200402010810B5044C0A46214695
:1039A00003480CF021F9204610BD00BF346300200D
:1039B000F001010808B50A4628B1054905480CF090
:1039C00013F9034808BD024902480CF00DF9F8E765
:1039D00034630020D401010808B50A4628B105491E
:1039E00005480CF001F9034808BD024902480CF0F3
:1039F000FBF8F8E734630020E0010108002070477D
:103A000010B483B004460A460B4B93E803000090C1
:103A1000ADF80410090C8DF80610212C06D11060A9
:103A2000BDF804109DF8063091809371002003B01A
:103A30005DF8044B704700BF780001080020704714
:103A400010B5054C014620460CF0A7FA20460CF0B4
:103A5000C4FA002010BD00BF5C5C002010B5064C0D
:103A60000022064920460CF090FA054920460CF049
:103A700094FA002010BD00BF5C5C0020346D002073
:103A800034650020094BD3F8BC32D3F814320BB1A3
:103A90000120704710B50A460146044C20460CF040
:103AA00074FA20460CF07FFA10BD00BF5C5C002069
:103AB0007047FEE7FEE7FEE7FEE770477047704796
:103AC00008B506F04DFD08BD08B506F05BFC08BD65
:103AD00008B504F035FB08BD704708B5012004F0B7
:103AE00060FD08BD08B5024806F016F808BD00BF25
:103AF0003809002008B5024806F00EF808BD00BFDE
:103B0000A80F002008B5024806F006F808BD00BF5F
:103B1000300F002008B5024805F0FEFF08BD00BFC9
:103B20007C15002008B5024805F0F6FF08BD00BF6F
:103B3000383B002008B5024805F0EEFF08BD00BF85
:103B40008C14002008B5024805F0E6FF08BD00BF50
:103B50004C0C002008B502480AF0B2F808BD00BFBE
:103B60002014002008B502480AF0AAF808BD00BFDA
:103B70002014002008B502480AF0A2F808BD00BFD2
:103B80002014002008B502480AF09AF808BD00BFCA
:103B90002014002008B5024806F0D4FD08BD00BF7F
:103BA000980A002008B5024807F006F908BD00BFD2
:103BB000980A002008B5024806F0C4FD08BD00BF01
:103BC000E40A002008B5024807F0F6F808BD00BF77
:103BD000E40A002008B5024809F0A8FE08BD00BFAD
:103BE000F415002008B5024809F0A0FE08BD00BF8A
:103BF0006408002008B502480AF0DAFC08BD00BFDE
:103C00009C10002008B502480AF05AF808BD00BF11
:103C1000EC08002008B502480AF052F808BD00BFC1
:103C2000EC08002008B502480AF04AF808BD00BFB9
:103C3000EC08002008B502480AF042F808BD00BFB1
:103C4000EC08002008B5024805F066FF08BD00BF7B
:103C5000D806002008B5024809F016FA08BD00BFD2
:103C6000CC0B002008B5024809F060FE08BD00BF7B
:103C7000540D002008B5024805F04EFF08BD00BFF6
:103C80005007002008B5024805F046FF08BD00BFF8
:103C90000415002008B5024805F03EFF08BD00BF2E
:103CA0002410002008B5024801F0CAF808BD00BF82
:103CB0002C5F002008B5024801F0C2F808BD00BF23
:103CC0002C5F002008B5024801F0BAF808BD00BF1B
:103CD0002C5F00207047000008B5024809F026FE5E
:103CE00008BD00BF3011002008B5024809F01EFED3
:103CF00008BD00BFC40C002008B5034807F0F8FC5D
:103D0000024807F0F5FC08BD8C160020DC0D0020F1
:103D100008B5034807F0ECFC024807F0E9FC08BDD1
:103D2000000A00204002002008B5034807F0E0FC2C
:103D3000024807F0DDFC08BDC807002088130020FA
:103D400008B504F03FFC08BD08B5034807F0D0FCF7
:103D5000024807F0CDFC08BD740E0020340B002093
:103D600000B583B01B4BD3F8F42042F00202C3F835
:103D7000F420D3F8F43003F002030193019B0022F6
:103D80001146012006F042FB012006F06FFB0022E5
:103D90001146042006F03AFB042006F067FB0022DF
:103DA0001146052006F032FB052006F05FFB0022DD
:103DB0001146512006F02AFB512006F057FB002245
:103DC00011467D2006F022FB7D2006F04FFB03B05C
:103DD0005DF804FB0044025810B58AB00023059337
:103DE00006930793089309930368384A934204D0D3
:103DF000374A934235D00AB010BD364CD4F8E03083
:103E000043F00203C4F8E030D4F8E03003F00203DA
:103E10000193019BC0230593122306930423099366
:103E200005A92D4804F0B8FAD4F8E83043F400139B
:103E3000C4F8E830D4F8E83003F400130293029B8E
:103E4000002211461F2006F0E1FA1F2006F00EFBAB
:103E500000221146202006F0D9FA202006F006FBA9
:103E6000C9E71C4CD4F8E03043F02003C4F8E0303C
:103E7000D4F8E03003F020030393039B032305935E
:103E8000122306930423099305A9144804F084FA25
:103E9000D4F8E83043F48003C4F8E830D4F8E830CC
:103EA00003F480030493049B00221146212006F0B2
:103EB000ADFA212006F0DAFA00221146222006F09F
:103EC000A5FA222006F0D2FA95E700BF0054004080
:103ED00000580040004402580004025800140258E0
:103EE00070B588B00023039304930593069307935A
:103EF0000268264B9A4201D008B070BD244BD3F81B
:103F0000D42042F48032C3F8D420D3F8D42002F471
:103F100080320092009AD3F8E02042F00402C3F805
:103F2000E020D3F8E02002F004020192019AD3F8D5
:103F3000E02042F00802C3F8E020D3F8E03003F0BC
:103F400008030293029B4FF4F85303930224049452
:103F5000032606960C2507950DEB05010D4804F088
:103F60001BFA0423039304940024059406960795F2
:103F70000DEB0501084804F00FFA2246012131201B
:103F800006F044FA312006F071FAB5E700700052ED
:103F90000044025800080258000C025870B592B054
:103FA00000230D930E930F93109311930368964A79
:103FB00093420FD0954A934238D0954A934279D094
:103FC000944A934200F0C680934A934200F0EF80F7
:103FD00012B070BD914BD3F8F02042F48052C3F878
:103FE000F020D3F8F02002F480520192019AD3F825
:103FF000E02042F00102C3F8E020D3F8E03003F003
:1040000001030293029BF0230D9302230E930523D9
:1040100011930DA9824804F0BFF900221146232014
:1040200006F0F4F9232006F021FAD1E77B4BD3F810
:10403000E82042F48042C3F8E820D3F8E82002F4F4
:1040400080420392039AD3F8E02042F00402C3F8BE
:10405000E020D3F8E02002F004020492049AD3F89E
:10406000E02042F00202C3F8E020D3F8E03003F091
:1040700002030593059B0C230D9302240E94052542
:1040800011950DA9674804F087F94FF440530D933B
:104090000E9400240F94109411950DA9624804F019
:1040A0007BF922462146242006F0B0F9242006F0B0
:1040B000DDF98DE7594BD3F8E82042F40042C3F80C
:1040C000E820D3F8E82002F400420692069AD3F8DA
:1040D000E02042F00102C3F8E020D3F8E02002F033
:1040E00001020792079AD3F8E02042F00202C3F8D7
:1040F000E020D3F8E03003F002030893089B4FF46C
:1041000000430D9302250E95062611960DA94448ED
:1041100004F042F918230D930E9500240F94109487
:104120001196414E0DA9304604F036F920230D9327
:104130000E950F941094072311930DA9304604F0A7
:104140002BF922462146332006F060F9332006F091
:104150008DF93DE7314BD3F8F02042F40052C3F81B
:10416000F020D3F8F02002F400520992099AD3F813
:10417000E02042F01002C3F8E020D3F8E03003F072
:1041800010030A930A9B4FF4F0430D9302230E93FE
:10419000052311930DA9254804F0FEF800221146CD
:1041A000542006F033F9542006F060F910E71B4B59
:1041B000D3F8F42042F02002C3F8F420D3F8F4201E
:1041C00002F020020B920B9AD3F8E02042F040025A
:1041D000C3F8E020D3F8E03003F040030C930C9BCD
:1041E0004FF4E2430D9302230E93052311930DA97F
:1041F0000F4804F0D1F800221146562006F006F9C7
:10420000562006F033F9E3E6003001400038004064
:10421000003C0040003401400014005800440258A3
:10422000000002580008025800040258001002580A
:104230000018025810B58AB004460023059306936F
:104240000793089309930368904A934204D0904AD5
:1042500093427FD00AB010BD8E4BD3F8F02042F0CD
:104260000102C3F8F020D3F8F02002F0010201921D
:10427000019AD3F8E02042F01002C3F8E020D3F80E
:10428000E03003F010030293029B4FF42073059378
:10429000022306930123099305A97F4804F07CF8C3
:1042A0007E487F4B036010234360402383600023DC
:1042B000C3604FF480620261436183614FF4807296
:1042C000C2610362436204F03DFC00283CD1734BA1
:1042D000A3639C637348744B03600F2343604023C4
:1042E00083600023C3604FF4806202614361836195
:1042F0004FF48072C2610362436204F023FC30BB5E
:10430000684B23629C6300221146182006F07EF859
:10431000182006F0ABF800221146192006F076F8B6
:10432000192006F0A3F8002211461A2006F06EF8B4
:104330001A2006F09BF8002211461B2006F066F8B2
:104340001B2006F093F885E7FEF76FFDBFE7FEF749
:104350006CFDD5E74F4BD3F8F02042F00202C3F8D2
:10436000F020D3F8F02002F002020392039AD3F86F
:10437000E02042F00402C3F8E020D3F8E03003F07C
:1043800004030493049B4023059302230693032311
:10439000099305A9454803F0FFFF4548454B0360D5
:1043A0003023436000238360C36003614FF4805275
:1043B00042614FF4804282614FF48072C2610362B5
:1043C000436204F0BFFB002856D1394BA3629C63C3
:1043D00039483A4B03603423436040238360002311
:1043E000C3604FF480620261436183614FF4807265
:1043F000C2610362436204F0A5FB00283FD12E4B4B
:10440000A3639C632E482F4B03602F2343604023FC
:1044100083600023C3604FF4806202614361836163
:104420004FF48072C2610362436204F08BFB48BBAD
:10443000234B63629C63002211462B2005F0E6FFAC
:104440002B2006F013F8002211462C2005F0DEFF89
:104450002C2006F00BF8002211462D2005F0D6FF87
:104460002D2006F003F8002211462E2005F0CEFF85
:104470002E2005F0FBFFEDE6FEF7D7FCA5E7FEF7E3
:10448000D4FCBCE7FEF7D1FCD2E700BF000001403E
:10449000000401400044025800100258D8060020D1
:1044A000B800024004150020280402400008025809
:1044B0005007002010040240383B002070000240EA
:1044C0004C0C0020A000024010B588B000230393DC
:1044D0000493059306930793026803F1804303F561
:1044E00088339A4201D008B010BD0446344BD3F84B
:1044F000F02042F01002C3F8F020D3F8F02002F0D0
:1045000010020192019AD3F8E02042F00102C3F8B0
:10451000E020D3F8E03003F001030293029B4FF454
:10452000F0530393022304930723079303A9254819
:1045300003F032FF2448254B03602A2343604023C5
:1045400083600023C3604FF4806202614361836132
:10455000C36103620422426203228262C362036374
:1045600004F0F0FA30BB184B63679C631848194B92
:1045700003602923436000238360C3604FF480629B
:10458000026143618361C3610362042242620322C8
:104590008262C362036304F0D5FA70B90C4BA3675F
:1045A0009C6300221146252005F030FF252005F0F0
:1045B0005DFF98E7FEF739FCD5E7FEF736FCEDE73F
:1045C0000044025800000258300F00204000024012
:1045D0002410002070040240F0B58FB00446026839
:1045E000904B9A4223D022688F4B9A4278D022680F
:1045F0008E4B9A4200F0C58022688D4B9A4200F0A3
:104600003B8122688B4B9A4200F0918122688A4B51
:104610009A4200F0B6812268884B9A4200F0DD8110
:104620002268874B9A4200F003820FB0F0BD854BA1
:104630001B68002B3BD0834A13680133136030237F
:10464000099302260A9600250B950C9506270D97CF
:1046500009A97D4803F0A0FE09960A960B950C95D2
:104660000D9709A9794803F097FE7948794B0360C3
:10467000572343608560C5604FF4806303614FF446
:10468000805343614FF480438361C5610562042315
:10469000436203238362C562056304F053FAE0B901
:1046A0006B4BC4F884309C63C4F880309BE76A4B42
:1046B000D3F8F02042F48002C3F8F020D3F8F030B1
:1046C00003F480030193019B00221146572005F05B
:1046D0009DFE572005F0CAFEADE7FEF7A6FBDFE71B
:1046E000584B1B68002B33D0564A136801331360B4
:1046F0004FF45073099302230A9300250B950C95F0
:1047000006230D9309A9554803F046FE5448554B1E
:104710000360582343608560C5604FF48063036184
:104720004FF4805343614FF480438361C561056258
:104730000423436203238362C562056304F002FA23
:10474000E0B9474BC4F884309C63C4F880304EE72E
:10475000414BD3F8F02042F48002C3F8F020D3F8A4
:10476000F03003F480030293029B0022114657208D
:1047700005F04CFE572005F079FEB5E7FEF755FB36
:10478000DFE7394B1B68002B33D0374A13680133FE
:1047900013604FF46053099302230A9300250B958D
:1047A0000C950A230D9309A9304803F0F5FD304814
:1047B000304B0360592343608560C5604FF48063CC
:1047C00003614FF4805343614FF480438361C561BB
:1047D00005620423436203238362C562056304F018
:1047E000B1F9E0B9224BC4F884309C63C4F880303E
:1047F00002E7194BD3F8F02042F40002C3F8F0208E
:10480000D3F8F03003F400030393039B0022114616
:104810005B2005F0FBFD5B2005F028FEB5E7FEF709
:1048200004FBDFE70458014024580140045C0140C8
:10483000245C01400460014024600140045400589D
:10484000245400582002002000100258000802588A
:10485000A80F00202800024000440258001402580B
:104860008C1400208800024024020020000C025812
:104870007C15002058000240824B1B68002B3DD065
:10488000804A1368013313600426099602270A97A9
:1048900000250B950C9508230D9309A97A4803F080
:1048A0007BFD4FF4C06309930A970B950C950A237F
:1048B0000D9309A9754803F06FFD7548754B0360AA
:1048C0005A2343608560C5604FF4806303614FF4F1
:1048D000805343614FF480438361C5610562466242
:1048E00003238362C562056304F02CF9E0B9684BC9
:1048F000C4F884309C63C4F8803082E6664BD3F8F9
:10490000F02042F40002C3F8F020D3F8F03003F4B2
:1049100000030493049B002211465B2005F076FD02
:104920005B2005F0A3FDABE7FEF77FFADFE75B4B0B
:104930001B6883B1594A136801331360022309933A
:104940000A9300230B930C9306230D9309A9544853
:1049500003F022FD5AE6504BD3F8F02042F080726B
:10496000C3F8F020D3F8F03003F080730593059B73
:1049700000221146722005F049FD722005F076FDF7
:10498000D8E7464B1B6893B1444A13680133136060
:104990004FF40073099302230A9300230B930C93A3
:1049A00006230D9309A93E4803F0F6FC33E63A4B83
:1049B000D3F8F02042F08072C3F8F020D3F8F03042
:1049C00003F080730693069B00221146722005F0C7
:1049D0001DFD722005F04AFDD6E7324B1B688BB1F6
:1049E000304A1368013313604023099302230A936A
:1049F00000230B930C9308230D9309A9284803F077
:104A0000CBFC0DE6244BD3F8F42042F40012C3F89B
:104A1000F420D3F8F43003F400130793079B00222B
:104A20001146922005F0F2FC922005F01FFDD7E719
:104A30001C4B1B6883B11B4A1368013313600823A6
:104A4000099302220A9200220B920C920D9309A95B
:104A5000154803F0A1FCE8E50F4BD3F8F42042F42D
:104A60000012C3F8F420D3F8F43003F400130893D1
:104A7000089B00221146922005F0C8FC922005F008
:104A8000F5FCD8E724020020000002580018025864
:104A9000380900201000024000440258280200207B
:104AA000000C02582C020020001002582DE9F0479B
:104AB00082B0D0F80080CA00521A930003445A6DA5
:104AC0001B6D9A4255D8C1469B1AC1EBC104A20086
:104AD0000244526C934200D81A460C46074602F133
:104AE000030A4FEA9A0A15E006F1030A4FEA9A0A06
:104AF000E3001B1B9D003D44A96C3B7C0093B3B2BB
:104B0000E2B2404601F0F6F8AB6C3344AB646B6D37
:104B10001E446E6509EB441303F510639B699BB259
:104B20009A4512D8E3001B1B9A003A44516D136D4D
:104B300099420AD24BB15B1AC4EBC4018A003A44D1
:104B4000566CB342D0D81E46CEE7E3001B1B98003C
:104B500007443A6D7B6D9A420FD804F00F0401238D
:104B6000A340D8F8344824EA0304C8F834480020A5
:104B700000E0012002B0BDE8F0870020FAE7F0B5C0
:104B80008BB0002800F091800446056890F8BD3392
:104B900023B3032384F8BD33EB6B13F4807F01D17F
:104BA00000232361206800F043FE254655F8107B62
:104BB0006E460FCD0FC60FCD0FC695E8030086E8F1
:104BC0000300231D0ECB384600F070FD58B10223C0
:104BD00084F8BD33012528460BB0F0BD80F8BC3306
:104BE000FEF714FDD5E70021206800F027FE002322
:104BF00015E0D900C81A82002244012082F83D0045
:104C000082F83C30A2F84230002082F83F00506425
:104C10009064CA1A9100214408650133DBB26568CB
:104C2000AB42E6D3002315E0D800C11A8A00224423
:104C3000002182F8FD1182F8FC3182F8FF11C2F8E0
:104C40000412C2F80812C21A90002044C0F81012D0
:104C50000133DBB29D42E7D8254655F8107B6E46FE
:104C60000FCD0FC60FCD0FC695E8030086E80300F1
:104C7000231D0ECB384600F027FE054660B9002301
:104C800084F83830012384F8BD33636A012B08D0DF
:104C9000206801F0DAF99EE7022384F8BD3301258C
:104CA00099E7204600F0CEFCF2E7012593E7026881
:104CB00090F8BC33012B19D010B5012380F8BC3318
:104CC000836A012B0AD00446006801F0B2F920681B
:104CD00000F0A8FD002084F8BC0310BD8369012BFF
:104CE000F1D0936B43F480339363ECE70220704779
:104CF00070B504460D460068066C00EB411303F5E1
:104D0000306399682269012A11D0374A964254D0FB
:104D10003DB9C5EBC50293002344D3F81032002BF4
:104D20005CD0E9B22046FEF7CBFC002070BD11F04C
:104D3000080F09D02D4A9642F7D911F4004FF4D04C
:104D40004FF400429A60F0E711F0200F28D111F0E3
:104D5000280FEAD1254A964202D911F4004F22D1F8
:104D6000E900491B8A002244D2F804121B69C3F3EC
:104D70001203C91AC2F81412D2F80412D2F8083277
:104D80000B44C2F8083235B9C5EBC5029300234481
:104D9000D3F810325BB1E9B22046FEF791FCC4E7CC
:104DA00020229A60C1E74FF400429A60BDE704F503
:104DB0007172012101F09AF9EDE711F4004F09D168
:104DC00011F0200F01D020229A60E9B22046FEF7B0
:104DD00077FCAAE74FF400429A60A6E704F57172E7
:104DE000002101F083F99CE70A31544F0A30544FF7
:104DF00038B5044603681D6C03EB4111D1F8082B4C
:104E00000E4B9D4207D901F5306112F4004F02D0DC
:104E10004FF400438B602046FEF74AFC074B9D424F
:104E200002D92369012B01D0002038BD04F571722D
:104E30000121206801F05AF9F6E700BF0A30544F0B
:104E40002DE9F84F04460568284601F03AF908B103
:104E5000BDE8F88F2F460646206801F002F90028C9
:104E6000F6D0206801F0FDF810F0020F04D022689F
:104E7000536903F002035361206801F0F2F810F067
:104E8000100F15D02268936923F010039361D5F8B1
:104E9000208008F00F09C8F34343022B00F08580FF
:104EA000062B00F0A5802268936943F010039361FC
:104EB000206801F0D6F810F4002F40F0AD80206893
:104EC00001F0CFF810F4802F40F0F180206801F05D
:104ED000C8F80028C0F25F81206801F0C2F810F421
:104EE000006F0AD0D5F8083813F0010F40F06D813B
:104EF0002268536903F400635361206801F0B1F83C
:104F000010F0006F15D02268536903F000635361FD
:104F100094F8F433002B40F05C81012184F8F41301
:104F200023685B6DC3F38303C4F8F833204600F0B5
:104F30009DFB206801F095F810F4805F40F04D81F2
:104F4000206801F08EF810F4005F40F0AB8120681B
:104F500001F087F810F0080F40F0BC81206801F0E4
:104F600080F810F4801F40F0BE81206801F079F8CD
:104F700010F4001F40F0C181206801F072F810F0B9
:104F8000804F40F0C481206801F06BF810F0040FEE
:104F90003FF45EAF23685D6815F0040F40F0C081F8
:104FA00023685A6815435D6052E747F6F07318EAC4
:104FB000030F3FF478AF4FEAC90BABEB09034FEA9D
:104FC000830AA2444FEA1818C8F30A02DAF8081252
:104FD000284600F0AFFFC8F30A08DAF80832434465
:104FE000CAF80832DAF814324344CAF814325AE7DD
:104FF000082204F57171284600F09CFFC8F30A18D6
:105000004FEAC903A3EB09018A002244D2F8143203
:105010004344C2F8143246E7206801F026F880467F
:10502000B14617E007EB49130122C3F8082B4946A4
:105030002046FFF75DFE1DE007EB49130822C3F889
:10504000082B49462046FFF7D3FE16E009F1010977
:105050004FEA5808B8F1000F3FF431AF18F0010FD4
:10506000F4D05FFA89F1206801F00FF8824610F061
:10507000010FD7D11AF0080FDED11AF0100F04D0AB
:1050800007EB49131022C3F8082B1AF0200F04D0A5
:1050900007EB49132022C3F8082B1AF4005FD5D080
:1050A00007EB49134FF40052C3F8082BCEE72068F2
:1050B00000F0E3FF8046B1462AE059462046FEF75D
:1050C0000BFB1AF0080F04D007EB49130822C3F8B2
:1050D00008291AF0100F04D007EB49131022C3F867
:1050E00008291AF0400F04D007EB49134022C3F8F7
:1050F00008291AF0020F04D007EB49130222C3F863
:1051000008291AF0800F41D109F101094FEA580826
:10511000B8F1000F3FF4DAAE18F0010FF4D05FFAE7
:1051200089FB5946206800F0B9FF824610F0010F54
:10513000C7D009F00F03012101FA03F2D7F8343880
:1051400023EA0203C7F8343807EB4913C3F80819F8
:1051500023698B42B1D14FEAC902A2EB0902930045
:105160002344596C9A6C0A449A64B9F1000FA4D193
:10517000C9EBC902930023441B6D002B9DD104F59C
:1051800071720121206800F0B1FF96E74946204680
:10519000FFF78CFCB8E7D5F8043823F00103C5F815
:1051A000043894F8F433012B08D02046FEF7D4FAE3
:1051B0002268536903F0004353618DE6002184F8AF
:1051C000F413204600F052FAF2E72046FEF7ACFA5C
:1051D0008EE62046FEF7A8FAABE605F50068D8F89B
:1051E000043023F00103C8F804301021206800F0D7
:1051F0003DFB20E007EB46134FF67F31C3F808195B
:10520000D3F8002922F40012C3F80029D3F80029AA
:1052100042F00062C3F80029C3F8081BD3F8002B42
:1052200022F40012C3F8002BD3F8002B42F00062E6
:10523000C3F8002B013663689E42DBD3D8F81C30DC
:1052400043F00113C8F81C30236BEBB1D8F884305D
:1052500043F00B03C8F88430D8F8443043F00B0314
:10526000C8F84430D5F8003823F4FE63C5F8003898
:1052700004F57172217C206800F038FF22685369C0
:1052800003F4805353615BE6D8F8142042F22B03F9
:105290001343C8F81430D8F8103043F00B03C8F8A3
:1052A0001030DFE7206800F011FF206800F0D0FB2D
:1052B000E060256801F0AEFC227B0146284600F044
:1052C0003BFA2046FEF719FA2268536903F40053AB
:1052D00053613CE62046FEF70AFA2268536903F060
:1052E000080353613AE600212046FEF741FA22689E
:1052F000536903F48013536137E600212046FEF71B
:1053000031FA2268536903F40013536134E62046EE
:10531000FEF734FA2268536903F08043536132E6A2
:105320002046FEF731FA3BE690F8BC33012B01D161
:105330000220704710B50446012380F8BC3380F882
:105340003810006800F065FE002084F8BC0310BD32
:10535000F8B511F0800F1ED101F00F06F500AF1B5C
:10536000BC00274604F5FC74044404343E4606445D
:10537000002586F8FD5101F00F012170A260E37055
:10538000627802B1E180022B14D090F8BC33012B7B
:1053900013D10220F8BD01F00F06F500AF1BBC00D1
:1053A00027463834044404343E460644012586F832
:1053B0003D50E0E700232371E7E70546012380F82D
:1053C000BC332146006800F053FB002085F8BC0385
:1053D000F8BD38B511F0800F17D101F00F04E200CD
:1053E000151BAB001D4603F5FC73034404332C4628
:1053F0000444002284F8FD2101F00F01197090F897
:10540000BC23012A10D1022038BD01F00F04E200B4
:10541000151BAB001D463833034404332C460444AB
:10542000012284F83D20E7E70446012280F8BC23EE
:105430001946006800F064FB002084F8BC0338BD06
:1054400070B501F00F05EE00711B8C0004F5FC74C3
:105450000444211D761BB4000444C4F80822C4F897
:1054600010320023C4F8143284F8FD3184F8FC5162
:105470000369012B06D065B1DAB2006800F04EFC7A
:10548000002070BDC5EBC506B4000444C4F80C226E
:10549000F1E7DAB2006800F0A1FBF1E701F00F01DB
:1054A000C1EBC1018B001844D0F81402704770B5ED
:1054B00001F00F05EE00711B8C0038340444211DEF
:1054C000761BB4000444A2642365002363650123B2
:1054D00084F83D3084F83C500369012B06D05DB15F
:1054E000DAB2006800F01AFC002070BDC5EBC506FA
:1054F000B4000444E264F2E7DAB2006800F06EFB44
:10550000F2E738B501F00F0543689D4238D811F035
:10551000800F15D1CA00541AA3001C4603F5FC7372
:105520000344043322460244002182F8FD11012283
:105530009A701D7090F8BC23012A0DD1022038BD4D
:10554000EA00511B8B0019463833034404330144ED
:10555000012281F83D20EAE70446012280F8BC23BD
:105560001946006800F0FAFC1DB1002084F8BC0365
:1055700038BD04F57172217C206800F0B7FDF4E7B6
:10558000012038BD01F00F03426893422FD810B5B7
:1055900011F0800F14D1DA00D41AA1000C4601F5E5
:1055A000FC71014404310444002284F8FD210022EE
:1055B0008A700B7090F8BC33012B0DD1022010BD06
:1055C000DA00D41AA1000C463831014404310444F5
:1055D000012284F83D20EAE70446012380F8BC3329
:1055E000006800F0E8FC002084F8BC0310BD012036
:1055F000704730B40468606A29B10D46A36A00EBB5
:10560000134000230CE040EA0240A06212E003F1E4
:10561000400104EB8101496800EB11400133DBB22A
:10562000691E8B42F3D340EA024005F13F0104EBCF
:1056300081014860002030BC704703685962002037
:1056400070470000024603680121C0F8FC130020E7
:1056500082F8F4039A6942F000629A61596D024A35
:105660000A435A65704700BF0300001070470000EE
:10567000002301330C4A934211D80269002AF8DA58
:10568000036943F00103036100230133064A934297
:1056900007D8026912F0010FF7D1002070470320EC
:1056A00070470320704700BF400D030084B010B561
:1056B000044603A880E80E00089B012B0DD0E36888
:1056C00043F04003E3602046FFF7D2FF0C9B13BB7F
:1056D000A36B43F48033A36311E0A36B23F4803303
:1056E000A363E268134B1340E360E36823F44013C1
:1056F000E3600F9B012B09D02046FFF7B9FF069B03
:10570000012B0DD0BDE8104004B07047E36843F4AE
:105710008013E360F0E7A36B23F48033A363EEE729
:10572000A36843F00603A360A36843F02003A360CB
:10573000E8E700BFBFFFBDFF022A0AD00921C26807
:1057400022F47052C260C36843EA8123C360002020
:105750007047274B0B44274A934239D9264B0B44B9
:10576000264A934236D9264B0B44264A934233D9D4
:10577000254B0B4402F5C332A03293422ED9234B62
:105780000B44234A93422BD9224B0B4402F592221D
:1057900002F57872934225D91F4B0B4402F5C322C0
:1057A00002F5207293421FD91C4B0B4402F5B7122D
:1057B00002F55872934219D9194B0B4402F5122283
:1057C00002F5F862934201D90621B8E70721B6E74E
:1057D0000F21B4E70E21B2E70D21B0E70C21AEE7AF
:1057E0000B21ACE70A21AAE70921A8E70821A6E7CF
:1057F000405327FFFF340C00401E1BFF3F420F00A9
:1058000000DC0BFF7F4F1200808CF9FE60B6E5FED6
:105810005FE3160000D3CEFEC05BB3FE00CA91FE6C
:10582000E05459FE836843F0010383600020704711
:10583000836823F0010383600020704708B5C368C4
:1058400023F0C043C360012909D069B9C36843F09C
:105850008043C360322004F095FE002008BDC36879
:1058600043F00053C360F5E7012008BD890141F012
:105870002001016100230133054A934205D80269E2
:1058800012F0200FF7D1002070470320704700BFAF
:10589000400D03001023036100230133054A9342A6
:1058A00005D8026912F0100FF7D1002070470320CD
:1058B000704700BF400D0300D0F800381943C0F80E
:1058C000001800207047000084B02DE9F041044624
:1058D00007A880E80E002546002306E003F14002F9
:1058E00004EB82020021516001330E2BF6D9119B8B
:1058F000A3BBD4F8043843F00203C4F80438A36B04
:1059000023F40013A363236843F040032360236858
:1059100043F0800323600023C4F8003E04F50066D2
:10592000D4F80038C4F800380C9B012B1BD003219D
:105930002046FFF7C1FF10212046FFF797FF804662
:1059400008B14FF001082046FFF7A4FF08B14FF05F
:105950000108002333617361F3611BE0A36B43F41F
:105960000013A363D7E7099B23B900212046FFF763
:10597000A3FFE0E701212046FFF79EFFDBE7C3B965
:105980004FF00060C2F8000900220A614FF67F3232
:105990008A60013307998B4210D205EB431202F55E
:1059A0001061D2F800090028E9DB0020C2F80009E4
:1059B000EAE74FF09040C2F80009E5E700230AE06B
:1059C000BBB14FF09047C2F8007B002202614FF656
:1059D0007F32826001338B4210D205EB431202F515
:1059E0003060D2F8007B002FEADB0027C2F8007B92
:1059F000EBE74FF00067C2F8007BE6E7336923F47A
:105A0000807333610023A3616FF0804363610A9B5D
:105A10001BB9A36943F01003A361A2690A4B1343A6
:105A2000A3610D9B1BB1A36943F00803A361119B04
:105A3000012B04D04046BDE8F04104B07047A26994
:105A4000024B1343A361F5E700383C80040000409B
:105A5000D0F8083813F0060305D0062B18BF022B28
:105A600003D102207047002070470F2070470000CC
:105A700070B40B784A78012A20D0D0F81C2803F0A3
:105A80000F060124B44042EA0442C0F81C2800EB8F
:105A90004310D0F8003B13F4004F0CD1D0F8002B8A
:105AA0008B68C3F30A03C97843EA81431343134A5B
:105AB0001A43C0F8002B002070BC7047D0F81C4877
:105AC00003F00F06B24092B22243C0F81C2800EB4C
:105AD0004310D0F8002912F4004FECD1D0F800495F
